:100000000C9446000C945D000C945D000C945D0013
:100010000C945D000C945D000C945D000C945D00EC
:100020000C945D000C945D000C945D000C945D00DC
:100030000C945D000C945D000C945D000C945D00CC
:100040000C945D000C945D000C945D000C945D00BC
:100050000C945D000C945D000C945D000C945D00AC
:100060000C945D000C945D000C945D000C945D009C
:100070000C945D000C945D000C945D000C945D008C
:100080000C945D000C945D000C945D0011241FBE67
:10009000CFEFD0E4DEBFCDBF11E0A0E0B1E0EAE0F9
:1000A000F2E000E00BBF02C007900D92AE30B10746
:1000B000D9F70E9488000C9403010C940000CF93A0
:1000C000DF9300D01F92CDB7DEB789837B836A832D
:1000D00089818A3031F48A819B81BC018DE00E9444
:1000E0005F0080EC90E0FC018081882F90E08072BE
:1000F00099270097B1F386EC90E02981FC012083D9
:1001000080E090E00F900F900F90DF91CF910895D5
:10011000CF93DF93CDB7DEB727970FB6F894DEBF46
:100120000FBECDBF81E290E0FC01108282E290E040
:100130002FEFFC01208384E290E0FC01108285E235
:1001400090E02FEFFC01208387E290E02FEFFC018D
:10015000208388E290E0FC0110821D821E821F82B3
:1001600080E290E0FC0180818D8383E290E0FC01DD
:1001700080818E831C821B821A82198237C080E2A2
:1001800090E0FC018081882F90E0098002C0959565
:1001900087950A94E2F78D838D81882F90E0817096
:1001A0009927009729F08B819C8101969C838B83F2
:1001B00083E290E0FC018081882F90E0098002C0FA
:1001C000959587950A94E2F78E838E81882F90E02B
:1001D00081709927009729F08B819C8101969C83DF
:1001E0008B8389819A8101969A83898389819A81F7
:1001F0008830910524F28B818F8388E290E02F81F3
:0A020000FC012083ADCFF894FFCF7E
:0E020A0000000002000000005F000000000085
:00000001FF
